:03000000020237C2
:10000B000202C3E709F608DFFA8046E709F208DFC8
:10001B00FA803E88828C83E709F0A3DFFA8032E313
:10002B0009F608DFFA8078E309F208DFFA807088B6
:10003B00828C83E309F0A3DFFA806489828A83E0F0
:10004B00A3F608DFFA805889828A83E0A3F208DFDF
:10005B00FA804C80D280FA80C680D4806980F2808E
:10006B0033801080A680EA809A80A880DA80E280B4
:10007B00CA803389828A83ECFAE493A3C8C582C809
:10008B00CCC583CCF0A3C8C582C8CCC583CCDFE973
:10009B00DEE7800D89828A83E493A3F608DFF9EC0F
:1000AB00FAA9F0EDFB2289828A83ECFAE0A3C8C59A
:1000BB0082C8CCC583CCF0A3C8C582C8CCC583CCC1
:1000CB00DFEADEE880DB89828A83E493A3F208DF30
:1000DB00F980CC88F0EF60010E4E60C388F0ED2400
:1000EB0002B4040050B9F582EB2402B4040050AF03
:1000FB00232345822390005E73E88FF0A4CC8BF012
:10010B00A42CFCE98EF0A42CFC8AF0EDA42CFCEAC8
:10011B008EF0A4CDA8F08BF0A42DCC3825F0FDE902
:10012B008FF0A42CCD35F0FCEB8EF0A4FEA9F0EBF8
:10013B008FF0A4CFC5F02ECD39FEE43CFCEAA42D04
:10014B00CE35F0FDE43CFC22EB9FF5F0EA9E42F04D
:10015B00E99D42F0EC6480C864809845F02275F00C
:10016B0008758200EF2FFFEE33FECD33CDCC33CCB1
:10017B00C58233C5829BED9AEC99E58298400CF5CC
:10018B0082EE9BFEED9AFDEC99FC0FD5F0D6E4CEFA
:10019B00FBE4CDFAE4CCF9A88222B800C1B900592E
:1001AB00BA002DEC8BF084CFCECDFCE5F0CBF978FB
:1001BB0018EF2FFFEE33FEED33FDEC33FCEB33FB8F
:1001CB0010D703994004EB99FB0FD8E5E4F9FA2219
:1001DB007818EF2FFFEE33FEED33FDEC33FCC93314
:1001EB00C910D7059BE99A4007EC9BFCE99AF90FDC
:1001FB00D8E0E4C9FAE4CCFB2275F010EF2FFFEE48
:10020B0033FEED33FDCC33CCC833C810D7079BEC92
:10021B009AE899400AED9BFDEC9AFCE899F80FD50A
:10022B00F0DAE4CDFBE4CCFAE4C8F922787FE4F60B
:10023B00D8FD75813202027E0203AEE493A3F8E48B
:10024B0093A34003F68001F208DFF48029E493A323
:10025B00F85407240CC8C333C4540F4420C883403C
:10026B0004F456800146F6DFE4800B01020408100B
:10027B0020408090050AE47E019360BCA3FF543FAD
:10028B0030E509541FFEE493A360010ECF54C02543
:10029B00E060A840B8E493A3FAE493A3F8E493A333
:1002AB00C8C582C8CAC583CAF0A3C8C582C8CAC597
:1002BB0083CADFE9DEE780BEC0E0C0F0C083C08246
:1002CB00C0D075D000C000C001C002C003C004C0C4
:1002DB0005C006C0070529E52970020528742B25E2
:1002EB0025F8E6FF7E001204E9AC06AD077F077E1A
:1002FB0000120523C374079525FF7401A807088016
:10030B0005C333CE33CED8F9FDAC067F067E001283
:10031B000523E525045407F525D007D006D005D0D5
:10032B0004D003D002D001D000D0D0D082D083D063
:10033B00F0D0E032E4F513F512F511F51075170155
:10034B00F516F515F514F518C3E518940874809493
:10035B00805047742B2518F8E6FFE4FCFDFEAB1725
:10036B00AA16A915A814120104E5132FF513E5120B
:10037B003EF512E5113DF511E5103CF510AF17AE4A
:10038B0016AD15AC14E47B0AFAF9F81201048F17B9
:10039B008E168D158C14051880AEAF13AE12AD11E1
:1003AB00AC10227DFF7C007F047E00120523D2AFB0
:1003BB00D2A9120538AE28EE3395E085290B8E0AAB
:1003CB00F509F508E47BE87A03F9F8AF0BAE0AAD53
:1003DB0009AC081204A5AC00AD01AE02AF03EC4DA5
:1003EB004E4F700312045AAE28AF29EE3395E0FD41
:1003FB00FCAB0BAA0AA909A808C312015370B6805B
:10040B00E68F138E128D118C10E4F514C3E5149442
:10041B0008748094805037E47B0AFAF9F8AF13AE76
:10042B0012AD11AC101204A5AF03742B2514F8A652
:10043B0007AF13AE12AD11AC10E47B0AFAF9F81248
:10044B0004A58F138E128D118C10051480BE2212F1
:10045B00033F8F0F8E0E8D0D8C0C7FFF7EE07DF595
:10046B007C05AB0FAA0EA90DA80CC3120153700A81
:10047B00F50FF50EF50DF50C8015E50F2401F50FB5
:10048B00E4350EF50EE4350DF50DE4350CF50CAF3A
:10049B000FAE0EAD0DAC0C02040CC2D5E830E70F5D
:1004AB00B2D5E4C39BFBE49AFAE499F9E498F8EC2F
:1004BB0030E717B2D51204DB1201A5E4C39BFBE4B2
:1004CB009AFAE499F9E498F880031201A530D50D56
:1004DB00E4C39FFFE49EFEE49DFDE49CFC228E1989
:1004EB008F1A781B7C007D007BFF7A05794D7E008F
:1004FB007F0A1200DE741B251AF8E6FF7E0022022B
:10050B00280000082B00000000000000000125005F
:10051B0002260000012A00008D8000EFC43354E056
:10052B00FFE5A0541F4FF5A00053A01F22438E8060
:10053B005389F0758ACD758CD4C28DD28CD289D269
:0C054B00A922C0F9A4B0999282F8809017
:00000001FF
